:100A8E00566F6C746D6574657200416D6D6574653D
:070A9E00720056006D4100DB
:020AED00C10046
:100AA500D2A7C2B0D2B130A706C2B2D2B280F72265
:0E0AC500120AA58FA0C2B0C2B1D2B2C2B22234
:0E0AD300120AA58FA0D2B0C2B1D2B2C2B22216
:100A2B008B0C8A0D890EAB0CAA0DA90E1209536003
:100A3B0013050EE50E7002050D14F9120953FF1282
:050A4B000AD380E22245
:100A70007F02120AC57F38120AC57F01120AC57F9C
:0E0A80000C120AC57F06120AC57F80020AC545
:0709D300AE08AF0912097E16
:1009DA00AE07E4FD749C2EFEC36480948040010D32
:1009EA00C3EE6480948050ECED648094804007EDFF
:1009FA002430FF120AD3E4FD74642EFE74F62EFE30
:100A0A00C36480948040010DC3EE6480948050ECEE
:100A1A00ED2430FF120AD3EE240AFD2430FF020A25
:010A2A00D3F8
:0C0AE100C2B5C2B6D2B6D2B520B4FD2218
:100AB500C2B5C2B7AF907508008F09D2B7D2B522BB
:100A5000E4FDFCC3ED9FEC9E5015E4FBFA0BBB00DC
:0F0A6000010AEB647B4A70F50DBD00010C80E4C8
:010A6F002264
:10080000120A707BFF2000077A0A798E0208B57AF7
:100810000A79980208B520B3267F147E00120A5088
:1008200020B31CB2007F01120AC57BFF2000067AAC
:100830000A798E80047A0A7998120A2B30B3FDE483
:10084000F50AF50BFE120AE1120AB5E509250BF5CA
:100850000BE508350AF50A0EBE0AEAAE0AAF0B7CB4
:10086000007D0A12097E8E0A8F0B7FC0120AC5AE68
:100870000AAF0B7C007D3B12096C8E088F0930009B
:10088000097D0F12097E8E088F097C037DE812090D
:10089000D37F2E120AD3AE08AF097C037DE812097C
:1008A0007E8C088D097C007D0A1209D320000C7B08
:1008B000FF7A0A79A0120A2B0208167BFF7A0A79BE
:0708C000A2120A2B02081628
:030000000208C72C
:0C08C700787FE4F6D8FD75812002090E50
:10095300BB010689828A83E0225002E722BBFE02A2
:09096300E32289828A83E49322D5
:10096C00EF8DF0A4A8F0CF8CF0A428CE8DF0A42E9F
:02097C00FE2259
:10097E00BC000BBE0029EF8DF084FFADF022E4CC5D
:10098E00F875F008EF2FFFEE33FEEC33FCEE9DEC26
:10099E00984005FCEE9DFE0FD5F0E9E4CEFD22ED6C
:1009AE00F8F5F0EE8420D21CFEADF075F008EF2FB6
:1009BE00FFED33FD4007985006D5F0F222C398FDA7
:0509CE000FD5F0EA2244
:1008D300020800E493A3F8E493A34003F68001F233
:1008E30008DFF48029E493A3F85407240CC8C33326
:1008F300C4540F4420C8834004F456800146F6DFF5
:10090300E4800B0102040810204080900AEDE47E8D
:10091300019360BCA3FF543F30E509541FFEE493E9
:10092300A360010ECF54C025E060A840B8E493A3B0
:10093300FAE493A3F8E493A3C8C582C8CAC583CADB
:10094300F0A3C8C582C8CAC583CADFE9DEE780BE93
:010AEF000006
:00000001FF
